:020000040800F2
:10000000181C0020A1190008A9190008AB19000844
:1000100000000000000000000000000000000000E0
:10002000000000000000000000000000E9010008DE
:1000300000000000000000007D020008C902000866
:10004000B3190008B3190008B3190008B319000860
:10005000B3190008B3190008B3190008B319000850
:10006000B3190008B3190008B3190008B319000840
:10007000B3190008B3190008B3190008B319000830
:10008000B3190008B319000800000000B3190008F4
:10009000B3190008B3190008B3190008B319000810
:1000A000B3190008B3190008B3190008B319000800
:1000B000A104000800000000B319000800000000BF
:1000C00000F002F800F046F80CA030C808382418F8
:1000D0002D18A246671EAB4654465D46AC4201D180
:1000E00000F038F87E460F3E0FCCB646012633426C
:1000F00000D0FB1AA246AB4633431847CC2D000074
:10010000EC2D0000103A02D378C878C1FAD8520713
:1001100001D330C830C101D504680C6070470000BD
:100120000023002400250026103A01D378C1FBD813
:10013000520700D330C100D50B6070471FB5C046D1
:10014000C0461FBD10B510BD03B4FFF7FBFF03BCD5
:1001500001F04CFE01F040FD1146FFF7EFFF01F00A
:100160009FFE0448002101F0E5FE01F0ADFE01F024
:1001700052FD00005000002080F309887047EFF323
:1001800009807047684680F3098806480078C007F0
:1001900003D1032080F314887047022080F3148871
:1001A00070470000982E0008064B9C46EFF305832D
:1001B0001B0605D1EFF31483DB0701D000DF704786
:1001C00060470000CB1F0008064B9C46EFF30583F9
:1001D0001B0605D1EFF31483DB0701D000DF704766
:1001E00060470000B9210008EFF309808169891E8A
:1001F000097800292BD1A6461FC8A4467446E047BB
:10020000EFF3098307C31A4B06CB91421CD0083B7E
:1002100000290DD0EFF3098020388862F0C04446F1
:100220004D4656465F46F0C00CB402F0E3FA0CBCF3
:100230001A60906A1030F0C8A046A946B246BB4684
:1002400080F309882038F0C80220C043004710B569
:10025000084A1268914209D8074C89006458A6469A
:100260001FC8A446F047EFF309840FC410BD000077
:100270007C000020FC1D0008FC1D000802F09AF91B
:10028000104B06CB91421AD0083BEFF3098020387F
:100290008862F0C044464D4656465F46F0C00CB4F6
:1002A00002F0A8FA0CBC1A60906A1030F0C8A046A0
:1002B000A946B246BB4680F309882038F0C8022020
:1002C000C04300477C00002002F044FBD8E7000058
:1002D00001F07AFE02F03EFBD2E7000000BF0028EA
:1002E000FDD1704710B501F0DBFD00F00BF800F018
:1002F0008CF800F021F800F089F901F0E5FD00200C
:1003000010BD000010B50121480400F0A7FF012135
:10031000880400F0A3FF0121C80400F09FFF012121
:10032000080500F09BFF0121880500F097FF0121DF
:10033000480400F0AFFF10BD10B5C020A24908600E
:10034000002088710120C871487108719F4800F031
:100350008FFB04209C490860002088710120C8712F
:10036000487108719A4800F083FBFF20F9309649E4
:100370000860002088710120C87148710871954893
:1003800000F076FB072080028F490860002088710A
:100390000120C871487108718F4800F069FBE120A5
:1003A000000289490860002088710120C8714871E5
:1003B00008710920C00600F05BFB8021834800F033
:1003C000D4FB4021814800F0D0FB012149030920E2
:1003D000C00600F0CAFB0121C9030920C00600F0D5
:1003E000C4FB012189027C4800F0BFFB0121C90246
:1003F000794800F0BAFB01210903774800F0B5FB0A
:100400000421734800F0B1FB10BD10B50C206E49FB
:1004100008600120487102200871002088710120C5
:10042000C8710920C00600F023FB01220221092027
:10043000C00600F0A6FB012203210920C00600F03F
:10044000A0FB1C20654908700020487001208870BE
:10045000084600F0C5FBE120000261490860002069
:1004600048608860C86048610C2008615D4800F001
:10047000AFFF01215B4801F03AF801225A4959487F
:1004800001F0CBF959485A4908605A485A4908605E
:10049000202101F0F8FB2021544801F0F4FB10BDAD
:1004A00010B556494F4801F0F8F9002837D05248A6
:1004B000006853490968405C0D2803D15048006822
:1004C0001F2808DB4C4800684D4A1268815C45488B
:1004D00001F0BEF81EE04848006849490968405CE0
:1004E00000280BD1464908602021434801F0CBFB8E
:1004F000002242493B4801F090F90BE000204049BE
:10050000086020213C4801F0BEFB00223B493548F1
:1005100001F083F93A480068401C394908603249C3
:10052000304801F0BAF9002834D02E4801F094F890
:10053000C4B20D2C0BD10D202D490968314A126827
:1005400088540020304908602E4908600DE03A2C9C
:100550000BD13A2026490968087001202A49086011
:1005600028480068401C274908602748006801287F
:100570000FD12448006820280BDA3A2C09D01C48F7
:1005800000682049096844541E480068401C1D4901
:10059000086000BF1449134801F0A6F910BD0246D7
:1005A0000020704710B504461348046004E001229F
:1005B00012490C4801F031F90F4800680028F6D1C3
:1005C00010BD0B4800687047000000200014004870
:1005D000000C004800040048000800480800002003
:1005E000980000200044004005010500B0000020F4
:1005F00014000020D0000020180000200701070090
:100600001C000020200000202400002010B5002144
:10061000CB4801F08FFCCB490860084600680028F1
:1006200001D1401E10BD0020FCE7002004E0202185
:10063000C54A12681154401C2028F8DB704710B5D9
:100640000446C2A1204601F0ECFA002811D0402156
:10065000C04800F08CFA0F2001F014FC4021BD4886
:1006600000F083FA0F2001F00DFCFFF7DEFF002001
:1006700010BDB9A1204601F0D4FA002811D0802184
:10068000B44800F074FA0F2001F0FCFB8021B1485F
:1006900000F06BFA0F2001F0F5FBFFF7C6FF00201A
:1006A000E6E7AFA1204601F0BCFA002815D00121F1
:1006B00049030920C00600F05AFA0F2001F0E2FBBE
:1006C000012149030920C00600F04FFA0F2001F074
:1006D000D9FBFFF7AAFF0020CAE7A3A1204601F03B
:1006E000A0FA002815D00121C9030920C00600F096
:1006F0003EFA0F2001F0C6FB0121C9030920C00604
:1007000000F033FA0F2001F0BDFBFFF78EFF002051
:10071000AEE797A1204601F084FA002813D001210A
:100720008902954800F023FA0F2001F0ABFB01216C
:100730008902914800F019FA0F2001F0A3FBFFF79E
:1007400074FF002094E78DA1204601F06AFA00288A
:1007500013D00121C902884800F009FA0F2001F0E6
:1007600091FB0121C902844800F0FFF90F2001F03C
:1007700089FBFFF75AFF00207AE782A1204601F0AB
:1007800050FA002813D0012109037B4800F0EFF94B
:100790000F2001F077FB01210903774800F0E5F90C
:1007A0000F2001F06FFBFFF740FF002060E777A10B
:1007B000204601F036FA002811D00421754800F0D7
:1007C000D6F90F2001F05EFB0421724800F0CDF94C
:1007D0000F2001F057FBFFF728FF002048E76EA12C
:1007E000204601F01EFA00280FD080216C4800F04E
:1007F000BCF97D20400101F045FB8021684800F0F4
:10080000B6F9FFF712FF002032E766A1204601F09B
:1008100008FA002817D04021614800F0A6F90F20FF
:1008200001F030FB40215E4800F0A1F9FF210131C9
:100830000920C00600F099F90A2001F023FBFFF718
:10084000F4FE002014E759A1204601F0EAF900283F
:100850000CD0FF2101310920C00600F086F90520E7
:1008600001F010FBFFF7E1FE002001E751A1204657
:1008700001F0D7F900280CD0FF2101310920C00672
:1008800000F075F9052001F0FDFAFFF7CEFE00201B
:10089000EEE64AA1204601F0C4F9002811D010214B
:1008A0003F4800F062F90A2001F0ECFA10213C48C0
:1008B00000F05DF90A2001F0E5FAFFF7B6FE00202E
:1008C000D6E640A1204601F0ACF9002811D008215D
:1008D000334800F04AF90A2001F0D4FA08213048E0
:1008E00000F045F90A2001F0CDFAFFF79EFE002046
:1008F000BEE636A1204601F094F9002815D0FF216C
:100900000131274800F031F97D20C00001F0BAFA2A
:10091000FF210131224800F02AF97D20C00001F0BA
:10092000B1FAFFF782FE0020A2E60020C0439FE656
:1009300005E005480068FFF782FE01F021FBF8E7BB
:10094000702E000828000020140000203A50425F5A
:10095000410D0000001400483A50425F420D000073
:100960003A50425F430D00003A50425F440D000090
:100970003A50425F450D0000000800483A50425F7F
:10098000460D00003A50425F470D00003A50425F6A
:10099000480D0000000C00483A50425F490D00002D
:1009A000000400483A50425F4A0D00003A50425F4E
:1009B0004B0D00003A50425F4C0D00003A50425F30
:1009C0004D0D00003A50425F4E0D00003A50425F1C
:1009D0004F0D000010B504460920C006844209D11D
:1009E0000121480400F064FC00210120400400F0D3
:1009F0005FFC3CE07448844208D10121000200F011
:100A000057FC0021200200F053FC30E06F48844284
:100A100008D10121000200F04BFC0021200200F06F
:100A200047FC24E06A48844209D10121080500F00E
:100A30003FFC00210120000500F03AFC17E065486A
:100A4000844208D10121400200F032FC0021600202
:100A500000F02EFC0BE06048844208D1012188059B
:100A600000F026FC00210120800500F021FC10BDD3
:100A7000F0B50A4600210023002400BF3DE0012517
:100A80008D402B4615681D402C469C4234D115796B
:100A9000012D02D01579022D16D185684F0003264D
:100AA000BE40B543856055794E00B54086683543F4
:100AB0008560858801268E40B54385808588967936
:100AC0008E40B6B23543858005684F000326BE4090
:100AD000B543056015794E00B5400668354305609D
:100AE000C5684F000326BE40B543C560D5794E00AA
:100AF000B540C6683543C560491C1029BFD3F0BD59
:100B0000364901600021017101214171002181718B
:100B1000C171704708B5012212040092009A0A437D
:100B20000092009AC261C161009AC261C2690092DA
:100B3000C269009208BD02460020138A0B40002BB8
:100B400001D0012000E0002070470146088A70476C
:100B500002460020938A0B40002B01D0012000E0C8
:100B6000002070470146888A70478161704701857F
:100B70007047002A01D0816100E0018570478182C1
:100B80007047F0B5002300244D07EE0E1546B54022
:100B90002B46CD10AE0005462035AD594E07F70E59
:100BA0000F26BE40B543CE10B60007462037BD51D4
:100BB000CD10AE003D46AD591D432C46CD10AD00C5
:100BC0003E467451F0BD0000000400480008004893
:100BD000000C00480010004800140048FFFF00000F
:100BE00000218278002A27D0274A03231B02D2182B
:100BF00003789B109B00D15802789207D30EFF22F6
:100C00009A400B469343194642789207120E037896
:100C10009B07DB0E9A4011431B4A03231B02D21889
:100C200003789B109B00D1500278D306DB0E012283
:100C30009A40154B1A6007E00278D306DB0E0122BA
:100C40009A40114B80331A607047002905D00F4A33
:100C5000126902430D4B1A6104E00C4A1269824387
:100C60000A4B1A617047042806D109490969042210
:100C70001143074A116105E00549096904229143BE
:100C8000034A11617047000000E100E000ED00E060
:100C900000E000E0FB48006801210843F9490860D2
:100CA00008464068F8490840F64948600846006828
:100CB000F6490840F34908600846006801218904A4
:100CC0008843F0490860084640683F21090488438A
:100CD000EC4948600846C06A00090001C86208463D
:100CE000006BFF2154318843E64908630846406B96
:100CF0004008400048630020886070470021E14AB6
:100D0000917011468870704710B50246002100238B
:100D100000205111002902D1DA4C23680BE001298F
:100D200002D1D84C236A06E0022902D1D54C636A6D
:100D300001E0D44C636BD106C90E01248C401C40E9
:100D4000002C01D0012000E0002010BD38B50020AB
:100D500000900024002500BF1120FFF7D5FF0546B5
:100D60000098401C0090052109030098884201D09A
:100D7000002DF1D01120FFF7C7FF002801D001247A
:100D800000E00024204638BD01460020BD4A10681E
:100D9000F82302469A431046CA001043B94A10602D
:100DA0007047002806D0B749096801221143B54AA7
:100DB000116005E0B349096849084900B14A11606A
:100DC000704701460020AF4A506BF82302469A4311
:100DD0001046CA001043AB4A50637047002806D043
:100DE000A849496B01221143A64A516305E0A54970
:100DF000496B49084900A34A51637047002806D04F
:100E0000A049496B042291439E4A516305E09D49E4
:100E1000496B042211439B4A516370479949096AFF
:100E200049084900974A11621146096A0422914310
:100E3000944A11621146096A01431162704791494F
:100E4000096A182291438F4A11621146096A0143C7
:100E500011627047002806D08A49496A012211436D
:100E6000884A516205E08749496A49084900854A2C
:100E700051627047834A52687B23DB039A43814B5C
:100E80005A601A46526803460B431A437D4B5A6018
:100E90007047002807D07B490968012212061143D8
:100EA000784A116006E077490968012212069143E9
:100EB000744A11607047002807D07249496B0122BB
:100EC000120411436F4A516306E06E49496B0122D7
:100ED000120491436B4A5163704701460020694AEE
:100EE000D06A0009000102460A431046654AD062F2
:100EF0007047002807D0634909680122D2041143D2
:100F0000604A116006E05F4909680122D2049143FA
:100F10005C4A116070475B49C87170470146002008
:100F2000584A50688008800002460A431046554AD5
:100F300050607047534840680C2108407047014694
:100F40000020504A5068F02302469A431046024659
:100F50000A4310464B4A5060704701460020494AF8
:100F6000506807231B0202469A43104602460A4372
:100F70001046444A50607047424949680122920332
:100F80009143404A51601146496882B211433D4A3B
:100F900051601146096B921591433A4A116311460B
:100FA000096B020C1143374A116370473549096BCD
:100FB00040229143334A11631146096B0143116387
:100FC00070473049096B102291432E4A1163114634
:100FD000096B0143116370470021010F012906D1FC
:100FE000284A126B92089200264B1A6306E0254AA3
:100FF000126B03231B049A43224B1A63214A126B80
:101000000243204B1A6370471E49096B80229143AB
:101010001C4A11631146096B014311637047FEB509
:101020000446002500260020029001900090002731
:10103000144840680C2108400546002D06D0042DB8
:1010400007D0082D08D00C2D37D133E01048206090
:1010500036E00F48206033E00A4840680F218904D9
:1010600008400646074840680321C903084002902B
:10107000B00C861C029800280ED10648374647431C
:1010800016E00000001002400CB8FFF8FFFFF6FE6B
:1010900000127A0000093D00AC48C06A0007000F4A
:1010A000401C0190AA48019900F0EFFD70430746EB
:1010B000276005E0A748206002E0A548206000BF47
:1010C00000BFA2484068F021084005462D09A2480B
:1010D000405D009021680098C14061609B48406875
:1010E00007210902084005462D0A9B48405D0090F3
:1010F00061680098C140A1609448006BFF210131F4
:101100000840884202D09548E0600DE08F48406872
:10111000012189030840884203D0A0684008E060AC
:1011200002E0A0688008E0608848006B4021084029
:10113000402802D08A48206102E00120C0032061DB
:101140008248006B10210840102802D0804860615E
:1011500001E0206860617D48006B8007800F0028F7
:1011600002D1A068A06119E07848006B8007800F69
:10117000012802D12068A06110E07448006B80074C
:10118000800F022802D18003A06107E06F48006B46
:101190008007800F032801D16D48A0616B48006B68
:1011A000032109040840002802D1A068E06120E082
:1011B0006648006B032109040840012109048842A4
:1011C00002D12068E06114E06048006B032109044B
:1011D000084001214904884202D18010E06108E002
:1011E0005A48006B032109040840884201D158483D
:1011F000E0615648006B80210840802802D05548A5
:10120000206200E02762FEBD5049096A01434F4A4F
:1012100011627047002807D04C49096A0122D203A5
:1012200011434A4A116206E04849096A0122D20381
:101230009143464A11627047002807D04349096A22
:10124000012212041143414A116206E03F49096A32
:101250000122120491433D4A11627047002905D0D2
:101260003A4A52690243394B5A6104E0374A52699B
:101270008243364B5A617047002905D0334A926940
:101280000243324B9A6104E0304A926982432F4B09
:101290009A617047002905D02C4AD26902432B4B32
:1012A000DA6104E0294AD2698243284BDA61704747
:1012B000002905D0254A926A0243244B9A6204E031
:1012C000224A926A8243214B9A627047002905D0D4
:1012D0001E4AD26802431D4BDA6004E01B4AD26802
:1012E00082431A4BDA607047002905D0174A126909
:1012F0000243164B1A6104E0144A12698243134BED
:101300001A617047002905D0104A527A02430F4BE8
:101310005A7204E00D4A527A82430C4B5A7270475B
:101320000A48406A01210906084308494862704793
:1013300001460020054A92680A40002A01D0012097
:1013400000E0002070470149887270470010024099
:1013500000127A00006CDC022C000020809FD50077
:101360001280000010B50446F848844209D10121DA
:101370008803FFF7ABFF002101208003FFF7A6FFE2
:1013800025E0F348844209D101214804FFF7ACFF6E
:10139000002101204004FFF7A7FF18E0ED48844238
:1013A00009D101218804FFF79FFF0021012080045B
:1013B000FFF79AFF0BE0E848844208D10121C804F6
:1013C000FFF792FF00210120C004FFF78DFF10BD41
:1013D000F0B58BB004460D46002700200A90002689
:1013E00020684008400020606668032109033046F9
:1013F00088430646A868064366602668D7480640C4
:10140000E968686808432969084306432660A668B6
:101410000321090230468843064668690643A660F0
:1014200001A8FFF7FCFDC948844202D107980A9041
:1014300007E0C748844202D108980A9001E0039867
:101440000A9020680121C903084000280CD02968AF
:101450000A9A500000F019FC074629680A9A5000C1
:1014600000F013FC0E4609E029680A9800F00DFC14
:10147000074629680A9800F008FC0E4628684008CC
:10148000B04200D87F1C20680121C9030840002811
:1014900006D03807460F3846B14908403043074662
:1014A000A7810BB0F0BD4B21C90101600021416053
:1014B0008160C1600C21016100214161704710B55C
:1014C000002242680F2424021346A3431A464C68A4
:1014D0000B6823438C682343CC6823431A43426040
:1014E00010BD0021016041608160C160704700292A
:1014F00004D0026801231A43026003E00268520824
:10150000520002607047002A03D003680B43036057
:1015100002E003688B4303607047002905D002682E
:101520000123DB031A43026004E002680123DB03AA
:101530009A4302607047002905D082680123DB02CC
:101540001A43826004E082680123DB029A438260CE
:101550007047002905D042680123DB041A4342602A
:1015600004E042680123DB049A434260704700298B
:1015700005D0426801239B041A43426004E042689C
:1015800001239B049A4342607047002A03D04368BA
:101590000B43436002E043688B434360704700297C
:1015A00005D042680123DB031A43426004E042682D
:1015B0000123DB039A4342607047002905D042684B
:1015C0000123DB051A43426004E042680123DB0586
:1015D0009A43426070474269120E120642614269A4
:1015E0000A4342617047028AFF231B021A400282AB
:1015F000028A0A4302827047002904D0026802234B
:101600001A43026003E0026802239A4302607047B3
:10161000826803231B059A43826082680A438260C2
:101620007047002905D0426801231B051A43426018
:1016300004E0426801231B059A43426070474268F8
:1016400003235B059A43426042680A434260704745
:10165000CA05D20D028570470146888CC005C00DB1
:10166000704742681202120A426042680B061A432F
:1016700042607047002905D0026801235B031A43CA
:10168000026004E0026801235B039A430260704732
:1016900002680123DB029A43026002680A43026087
:1016A0007047426810239A43426042680A4342608E
:1016B0007047426820239A43426042680A4342606E
:1016C0007047002905D0426801239B031A434260FA
:1016D00004E0426801239B039A434260704700295B
:1016E00004D0826808231A43826003E082680823DA
:1016F0009A4382607047028AD2B20282028A0B0247
:101700001A4302827047002904D0826820231A43BA
:10171000826003E0826820239A4382607047002938
:1017200004D0826810231A43826003E08268102389
:101730009A4382607047826807235B049A43826001
:1017400082684B041A4382607047000000380140F1
:101750000044004000480040004C0040F3E9FFFF17
:10176000F0FF000042691202120A426142690B0650
:101770001A4342617047826804239A4382608268F8
:101780000A4382607047002904D0826802231A430A
:10179000826003E0826802239A43826070470029D6
:1017A00005D0826801239B031A43826004E08268AB
:1017B00001239B039A438260704782680123DB0305
:1017C0009A43826082680A438260704702681F23DE
:1017D0005B059A43026002684B051A43026070473A
:1017E00002681F231B049A43026002680B041A4319
:1017F00002607047002A03D083680B43836002E0D5
:1018000083688B4383607047826801235B039A433C
:10181000826082680A4382607047F8B503460024FC
:10182000002600960025002018460E04340ECEB285
:1018300000960127009EB7403D46022C01D1001DB5
:1018400002E0032C00D10830002A03D006682E43A2
:10185000066002E00668AE430660F8BD002A03D0C9
:10186000038B0B43038302E0038B8B43038370479B
:10187000826801231B039A43826082680A43826064
:10188000704702460020D3690B40002B01D0012095
:1018900000E0002070470162704770B502460B46B9
:1018A00000240021002500201E04350ED9B2012697
:1018B0008E403146012D02D11668314006E0022DDE
:1018C00002D15668314001E0966831401C0C012677
:1018D000A6403446D6693440002903D0002C01D0FC
:1018E000012000E0002070BD10B5002300220B0C89
:1018F00001249C402246026210BD000000BFFEE7AA
:10190000012804D0022803D0032803D101E001E01C
:1019100000E000BF00BF00BFFEE710B501F08CF98A
:10192000002805D06021484316494018603810BD92
:10193000154810BD10B5154A03461169082900D392
:10194000FEE70801124C491C00191860116100F0F3
:1019500085FD012010BDB0B5044601F06DF90028E9
:1019600004D00D4F0B49BC46206800DFB0BDB0B5B8
:10197000044601F061F9002803D0084F2068BC46F6
:1019800000DFB0BD94080020B80B00203C00002010
:10199000D40A0020FFFF0000452500086D24000840
:1019A0000748804707480047FEE7FEE7FEE7FEE7F7
:1019B000FEE7FEE704480549054A064B704700006C
:1019C000A71A0008C1000008180C0020181C0020ED
:1019D00018140020181400200CB50020019000906D
:1019E000734800680121090408437149086000BF79
:1019F0006F48006801214904084000900198401C8C
:101A000001900098002804D105210903019888421B
:101A1000EED167480068012149040840002802D03F
:101A20000120009001E0002000900098012839D1A9
:101A30001120604908605E4840685D49486008467A
:101A400040684860084640687F21C9038843584978
:101A50004860084640681121090408435449486019
:101A6000084600680121090608435149086000BF83
:101A70004F4800680121490608400028F8D04C482A
:101A80004068800880004A49486008464068022152
:101A900008434749486000BF454840680C2108405A
:101AA0000828F9D10CBD10B5414800680121084350
:101AB0003F490860084640683F4908403C49486043
:101AC000084600683D4908403949086008460068F2
:101AD00001218904884336490860084640683F214F
:101AE00009048843324948600846C06A0009000179
:101AF000C8620846006BFF21543188432C490863B3
:101B00000846406B40084000486300208860FFF7AB
:101B100063FF10BDF8B500250024002600272448E7
:101B200040680C2108400546002D04D0042D06D045
:101B3000082D2AD107E022482249086029E02048E0
:101B40002049086025E01A4840680F2189040840B0
:101B50000446174840680321C90308400646A00C04
:101B6000841C002E04D118486043164908600BE01D
:101B70000F48C06A0007000F471C3946104800F0A4
:101B800084F860430F49086003E00D480D49086080
:101B900000BF00BF06484068F021084000090B491B
:101BA0000D5C08480068E84006490860F8BD000080
:101BB00000100240002002400CB8FF08FFFFF6FEB4
:101BC00000127A006000002000093D00640000203F
:101BD00000487047B80B00207546FFF7F9FFAE4686
:101BE000050069465346C008C000854618B020B5B8
:101BF000FFF7E0FE60BC00274908B6460026C0C5D6
:101C0000C0C5C0C5C0C5C0C5C0C5C0C5C0C5403DB4
:101C100049008D4670470446C046C0462046FEF740
:101C200093FA30B505460B462A461C781078521CAC
:101C30005B1C002801D0A042F7D0002C03D0002864
:101C400002D06D1CEFE7284630BD01E004C0091F3B
:101C50000429FBD28B0701D50280801CC90700D064
:101C60000270704700290BD0C30702D00270401CDD
:101C7000491E022904D3830702D50280801C891ED5
:101C8000E3E70022EEE70022DFE7002203098B42B0
:101C90002CD3030A8B4211D300239C464EE003460B
:101CA0000B433CD4002243088B4231D303098B42BF
:101CB0001CD3030A8B4201D394463FE0C3098B42F5
:101CC00001D3CB01C01A524183098B4201D38B014E
:101CD000C01A524143098B4201D34B01C01A5241F1
:101CE00003098B4201D30B01C01A5241C3088B4236
:101CF00001D3CB00C01A524183088B4201D38B0021
:101D0000C01A524143088B4201D34B00C01A5241C2
:101D1000411A00D201465241104670475DE0CA0F99
:101D200000D04942031000D34042534000229C4659
:101D300003098B422DD3030A8B4212D3FC22890163
:101D400012BA030A8B420CD3890192118B4208D339
:101D5000890192118B4204D389013AD0921100E09B
:101D60008909C3098B4201D3CB01C01A52418309AF
:101D70008B4201D38B01C01A524143098B4201D3DC
:101D80004B01C01A524103098B4201D30B01C01A07
:101D90005241C3088B4201D3CB00C01A5241830881
:101DA0008B4201D38B00C01A5241D9D243088B42D7
:101DB00001D34B00C01A5241411A00D2014663467A
:101DC00052415B10104601D34042002B00D54942DE
:101DD000704763465B1000D3404201B50020C04607
:101DE000C04602BD70477047704700000149182087
:101DF000ABBEFEE7260002007047000000000000B6
:101E000010B5002A06DA52005208D21DD308DB00B2
:101E1000102203E0D21C93089B000C22002B02D05E
:101E20009C188C4201D9012010BD82188360411892
:101E300002604160C91AD018884202D81060024678
:101E4000F9E70020106010BD70B50D46040004D005
:101E5000002A02D12078012801D0802070BD2046C0
:101E600000F060FA002805D02946204600F004F86A
:101E7000002070BD812070BD10B500F0E3FB00F0C4
:101E8000D1FB10BD80B5EFF30581002901D0822080
:101E900080BD024FBC4600DF80BD0000492C000819
:101EA00080B5EFF30580002801D0822080BDEFF3DC
:101EB0001480C00703D0034FBC4600DF80BD00F094
:101EC000CDFE80BD5D2C000880B588B0EFF30580A5
:101ED000002802D0822008B080BDEFF31480810773
:101EE0001248890F06D001291AD0022910D00329DF
:101EF00018D112E008A981F309880078C0070AD038
:101F0000022080F31488BFF34F8FBFF36F8F09E077
:101F10000078C00706D10320F3E70078C00701D09E
:101F2000FF20D8E7024FBC4600DFD4E7982E000818
:101F3000D52C000880B5EFF30582002A01D00020DF
:101F400080BDEFF31482064BD2075B78D20F1A43A1
:101F500003D0044FBC4600DF80BD00F0F5FE80BD1D
:101F600074000020492D0008034FBC4600DF034FDA
:101F7000BC4600DFFEE70000C12D0008DD2D000893
:101F800080B5EFF30580002801D0822080BD024F8C
:101F9000BC4600DF80BD0000192E0008074801681C
:101FA0000748416100218161072101610548016AFB
:101FB000FF2212061143016240177047942E000859
:101FC00000E000E000ED00E070470146EFF3108014
:101FD000C207D20F72B60868002801D003680B60F0
:101FE000002A00D162B6704710B500280ED0002933
:101FF0000CD00B318A089200016844680B1A1B1B35
:10200000934205D2084609680029F5D1002010BD89
:10201000002C07D0211803680B604A600160084655
:10202000083010BD4260083010BD000070B50D468C
:1020300000280FD00849094C884204D22268014682
:10204000104600F01FFB20684570054800F0DFF8DF
:1020500000F0E4FB70BD0000FFFF00007C000020EA
:10206000880B002010B50E480C4942680D480B68DB
:102070000068934204D00A60CB88421E9A188A8076
:102080008A8880B2824208D100200860044800F0AB
:10209000BEF80146024800F01DFB10BD9000002074
:1020A000880B00208C00002070B51A4DE8680028CD
:1020B0002FD0A88A401EA882002624E0A06800280D
:1020C00008D0616841606068002802D0A168816022
:1020D0006660A6600F482146183800F0FBFAA08A17
:1020E000A8826078042804D10B49E08A0988401846
:1020F000A08201206070E068E860E068002801D0FC
:102100000561E6602661A88A002802D1EC68002CEF
:10211000D4D170BDA00B00208C00002070B504004D
:102120000ED00C4DA17828680126827891420BD9F7
:1021300000F0EEFA28684670204600F06FFB70BD94
:10214000054800F064F8F8E766702146024800F0A0
:10215000C1FA70BD7C000020880B002010B503215F
:10216000FFF764FF10BD000010B50446008B084364
:1021700020836278618B062A17D0052A14D10A467B
:10218000104211D00240628388432083204600F031
:10219000E8FA01206070628B0821204600F0DDFA29
:1021A0002146044800F096FA10BD0A468243EBD05F
:1021B00010BD0000880B0020814202D342688A4291
:1021C00001D801207047EFF31082D207D20F72B608
:1021D00003680B60016000D162B6002070470028E0
:1021E00010D000290ED00839002203E00246006812
:1021F000002807D08842F9D1002A05D00068106075
:10220000002070470120704700214160F8E7014637
:10221000406842684A600B780022022B05D0012BEF
:1022200003D0032B01D0426070474368002B01D0DC
:1022300099604260826070470649074B48681B6896
:1022400082789B789A4202D142684A6070470020A7
:1022500070470000880B00207C00002070B5044609
:10226000154600202070012262702246A1702032A3
:1022700011716060A060E06020612062A082E08255
:10228000208360835071E08C002803D10448FFF75D
:102290009CFEE0622946204600F01EF870BD00005A
:1022A00038020020002801D0082901D201207047FF
:1022B0004118091F002201600A6042601046704701
:1022C00003480021016003490988C180704700006C
:1022D00090000020882E000830B5C28C920803D1EF
:1022E0000E4A12881204920CC36A92009A1853077D
:1022F00000D5121F403A01231B06D36300239163CC
:102300001C469D005B1C54510E2BFAD3C36913620B
:1023100082620163C06A0249016030BD842E0008F8
:10232000A52E5AE2C1898089081A704701220270DD
:102330000022427082704260028142818281034A9F
:1023400089038918090CC181704700000000FCFF57
:10235000F8B50446406800270D46002844D0607850
:102360000126012837D0022813D0032832D108468D
:10237000FFF72BFE05002DD02046FFF748FF04464F
:10238000294600F0E7F96670204600F0EAF9214698
:102390001DE02046FFF73BFF0546002100F0DAF97B
:1023A0002189E86989000919086172B6A089401C71
:1023B000A08162B62089401C80B22081E1898842D8
:1023C00000D127816E70284600F0CBF929461348CA
:1023D00000F080F9F8BD2046FFF719FF04462A46B1
:1023E000102100F0BAF9CEE7A089E189884211D224
:1023F000208980000019056172B6A089401CA08167
:1024000062B62089401C80B22081E1898842E1D1F6
:102410002781F8BD0320FFF773FAF8BD880B002071
:1024200010B5411C11D00A490A4C88420BD87D21B5
:10243000C900484308490A688018401E1146FFF742
:1024400024FCA04200D9204610BD0248401C10BD0B
:1024500000093D00FEFF0000A42E000803210170CA
:102460000021418041608160C1607047F8B5044639
:102470004088002804D0314DA1682A68914201D0DB
:10248000FF20F8BD401E0004000C608053D1296875
:10249000086AA04209D1E068086208E0C268A24266
:1024A00002D1E268C26002E010460028F6D1242082
:1024B000405C0A6A07E05368002B03D09B78834294
:1024C00000D91846D268002AF5D1887061680126C3
:1024D000002922D02046FFF79AFE0746002100F08F
:1024E00039F9384600F03DF96680A760386AE06047
:1024F0003C621348296840688A788078824201D318
:10250000384616E00E4800F0E5F839460C4800F071
:10251000E1F8286846707E700AE0094949688A78BF
:102520002968824207D9064800F0D4F82868467026
:102530000020FFF7F3FD0020F8BD00007C00002024
:10254000880B002070B50E46194D04464188286856
:10255000002907D0A168814209D16088401C6080B1
:10256000002070BDA060016AE1600462F5E7002E02
:102570000FD08A788078824203D28870A06800F0F9
:10258000D1F86068002806D02046296800F0A2F83B
:1025900008E0012070BD286860602968002048605C
:1025A0002868846009213046FFF740FDF1E700000C
:1025B0007C00002070B51848012102685170006845
:1025C00000F0A6F8154C657813E0E800011948689A
:1025D0000278002A17D0012A1AD000F0F1F8E0782A
:1025E0006D1C854200D1002572B6A078401EA070F7
:1025F00062B6A0780028E8D165700948FFF707FEA9
:1026000000F00CF970BD098989B2FFF7ADFDE6E76E
:102610008968FFF79DFEE2E77C000020D8070020D4
:10262000880B002005480178002902D00121417063
:10263000704701200249000748607047840000206D
:1026400000ED00E070B50E4BDD789C1C1E4672B6A6
:102650009A78AA4207D2521C22703278541CAC429B
:1026600000D10024347062B6DC78944204D9D200E0
:10267000D2189160506070BD0220FFF741F970BD23
:10268000D807002010B5124AD368002B17D0134684
:102690009B8A04E0002C12D02246A48AE318D46856
:1026A0008B42F7D3C460D0600261C468002C00D0B4
:1026B0002061591A8182908A401A908210BD0024AC
:1026C000C460D060C91A02619182848210BD00008A
:1026D000A00B002030B502780023022A03D0012A83
:1026E00001D0032A00D101238C7800E01046426813
:1026F000002A02D09578A542F8D24A604160002BAA
:1027000004D0002A00D09160886030BD0020FBE733
:1027100003494A68426000228260486070470000B6
:10272000880B002010B583680446002B05D1607823
:1027300001280CD1064B03E09B6818780028FBD0D9
:10274000204600F023F821461846FFF7C3FF10BDCE
:10275000880B0020806A01627047806A42620162D1
:10276000704710B5016900290FD0C268CA60C368FC
:102770000022002B07D08B8A848A1B198B82C368A6
:102780001961C26000E08A82026110BD816800297F
:1027900007D042684A604168002901D0806888609B
:1027A0007047064906E04A68824202D140684860A4
:1027B000704711460029F6D170470000880B0020B1
:1027C00010B5416800290FD0FFF721FD0446FFF73F
:1027D000C8FF0120607001462046FFF7BBFF21467D
:1027E0000348FFF777FF10BD4188491C418010BDA9
:1027F000880B002010B507480068816AC06A8142D2
:1028000003D300680449884202D00120FFF778F81A
:1028100010BD00007C000020A52E5AE2024948604D
:1028200002214170704700007C00002070B500203C
:102830000446264A264902E08300D450401C0B88F7
:102840009842F9D32348342201882348FFF7D8FA65
:10285000224801210088C90780B242182048016837
:102860002048FFF7CDFA2048082201881F48006859
:10287000FFF7C6FA1E4DFF20E870EC841D4A0021C8
:102880002846FFF7EBFC1C480421017044601B48FC
:102890000170C4600461848219481B4905600220EC
:1028A00068701848047044700978C170FFF708FD1B
:1028B0001648016AFF22120411430162C169026ACB
:1028C0005202920E92061143C16170BD5C08002055
:1028D000802E0008AC2E0008F0000020842E000896
:1028E000B02E000838020020C42E00084800002046
:1028F000540B0020FD180008880B0020A00B0020BE
:102900007C000020D8070020B82E000800ED00E071
:1029100010B5FFF743FB0C490028086013DB820861
:102920000A49920051180A688307DC0EFF23A3406E
:102930001A430A60C206D20E012191404011044A96
:1029400080008018016010BD8800002000E400E0D5
:1029500000E100E010B50B480121026851700068E9
:10296000FFF7D6FEFFF77EFB07480168491C0160B0
:10297000FFF79AFB00F056FA0448FFF748FCFFF710
:102980004DFF10BD7C0000208C000020880B002033
:10299000002805D0810702D10178002900D000204D
:1029A0007047000030B50D4C0023626805E01589C2
:1029B0008D4204D813461268491B002AF7D189B208
:1029C00002600181002A02D01589691A1181002B49
:1029D00001D0186030BD606030BD00007400002080
:1029E000FFB5080681B01E4617460C46000E00D102
:1029F0004C1C1448FFF7E9FA050021D02002000C16
:102A0000EF62E884EE61E1B22846019AFFF726FC06
:102A100001240D480D4906E0A2001218403AD26B7D
:102A2000002A04D0641C0A889442F5D90024A1002D
:102A300008184038C563EC702846FFF76FFB204646
:102A400005B0F0BDF00000205C080020802E0008DA
:102A5000F8B5484D0028296802D0CA78824238D19A
:102A600000274F70FDF78BFB29688862FFF7C2FED5
:102A70002868046A19E06068002815D02046FFF72E
:102A8000C6FB06460021FFF765FE3046FFF769FEEC
:102A90000120707031463848FFF71CFE012161802B
:102AA000A660316AE1603462E468002CE3D12868F2
:102AB000C1788A00314951184039CF63C16A304822
:102AC000FFF77AFB29682F48CF62FFF775FB2F606D
:102AD0004AE02D49098888420ED8810027480F18FE
:102AE000403FFD6B002D07D02846FFF74FFE2846DC
:102AF000FFF737FE2C6A1DE0FF20F8BD6068002854
:102B000017D02046FFF783FB06460021FFF722FE81
:102B10003046FFF726FE0120707031461648FFF759
:102B2000D9FD01216180A660316AE1603462E46808
:102B300000E0E468002CE1D1FC631148E96AFFF78A
:102B40003BFB29460F48EC62FFF736FB0A4840681A
:102B50008278084801688B789A4208D901224A7025
:102B600001680548FFF7B6FD0020FFF7D7FA0020FF
:102B7000F8BD00007C000020880B00205C080020CD
:102B800038020020F0000020802E000870B5FFF70A
:102B900053FB04000AD0064D06482968FFF79AFD4A
:102BA0002968012048702046FFF738FE70BD0000FC
:102BB0007C000020880B002070B51B4D002811D030
:102BC0001A4A1288904220D88200194810184038BA
:102BD000C46B002C19D0A170242001552868A04294
:102BE00005D014E0286881702868203001711148F0
:102BF00040688078884215D90E482968FFF76AFD39
:102C000029680120487000200AE0FF2070BD20469E
:102C1000FFF788FD6078012804D10648FFF7F7FA2E
:102C2000FFF77CFA002070BD7C000020802E000899
:102C30005C080020880B002002480068002800D0B3
:102C4000C07870477C00002010B5002805D0FFF741
:102C5000E7FB80B2FFF782FA402010BD10B5154C9B
:102C6000207800280DD11448400706D11348016888
:102C70001148FFF717FB002801D0852010BDFFF792
:102C8000D5FD0F49FF2009688870207800280BD1F6
:102C900000210C4800F042F80B49086000210B4865
:102CA00000F052F80A49086001202070002060708E
:102CB00010BD000074000020F8060020B42E0008AB
:102CC0007C000020BC2E000840000020740800207A
:102CD0003C00002070B50F4D6878002801D000201E
:102CE00070BD0D4C2068203001790020FFF764FF93
:102CF0002168C878FF2803D1886A203080F30988CA
:102D00006068002800D103C4FFF702FE012068704C
:102D1000E5E70000740000207C00002010B50400EE
:102D200008D02168002905D06068002802D0027808
:102D3000002A01D0002010BD8900103189B2FFF7B0
:102D4000F5FA606810BD000070B50E4604002ED084
:102D5000206800282BD00420205EC11C27DB03281C
:102D600025DCE168002905D01248FFF73DF9050090
:102D700016D000E000250421615EE068091D000214
:102D8000014333462A462068FFF72AFE002808D070
:102D90000949800040184038C06B0849826A516375
:102DA00070BD002D03D029460248FFF718FA002015
:102DB00070BD0000F80600205C080020691F0008B4
:102DC00010B5FFF739FF002804D0034980004018F0
:102DD0004038C06B10BD00005C08002010B5FFF744
:102DE000D7FD002804D0C18C002903D0C46A02E0BA
:102DF000802010BD0024C078FFF72AFEFF2807D0EE
:102E0000002C03D021460348FFF7E9F9002010BD4C
:102E1000812010BDF806002010B5FFF7B7FE002096
:102E200010BD0000F8B5104E7468002C16D0208933
:102E30000E4F401E20810EE025462468746000225B
:102E400029463868FFF700F86879012807D0012083
:102E50002871002C02D020890028EDD0F8BD6989A6
:102E60002846FFF79FFDF4E7740000204000002093
:102E7000310900080000000001000000000000000F
:102E800006000000C800010105000100001BB7009A
:102E90000C000000DF2E0000010000000200010015
:102EA0004A000400E80300000000000044010000A4
:102EB000C0040000E000000010000000000000005E
:102EC0008408002000000000E82E00080000002018
:102ED0009800000004010008802F000898000020DE
:102EE000801B00002001000800000000000000001E
:102EF00000000000000000000000000000000000D2
:102F000000000000000000000000000000000000C1
:102F1000000000000000000001020304010203049D
:102F20000607080900000000000000000000000083
:102F30000000000000000000E502000800000000A2
:102F400001000000C8000000006CDC02000000006E
:102F50000000000001020304060708090000000049
:102F60000000000000000000000000000000000061
:102F70000000000000000000000000000000000051
:04000005080000C12E
:00000001FF
