:020000040800F2
:100000005819002081150008891500088B15000873
:100010008D1500088F1500089115000800000000DC
:1000200000000000000000000000000001020008C5
:10003000951500080000000079020008B5020008CC
:100040009B1500089B1500089B1500089B150008D0
:100050009B1500089B1500089B1500089B150008C0
:100060009B1500089B1500089B1500089B150008B0
:100070009B1500089B1500089B1500089B150008A0
:100080009B1500089B1500089B1500089B15000890
:100090009B1500089B1500089B1500089B15000880
:1000A0009B1500089B1500089B1500089B15000870
:1000B0009B1500089B1500089B1500089B15000860
:1000C0009B1500089B1500089B1500089B15000850
:1000D0009B150008C10600089B1500089B15000829
:1000E0009B1500089B1500089B15000800F002F8FE
:1000F00000F040F80AA090E8000C82448344AAF182
:100100000107DA4501D100F035F8AFF2090EBAE87F
:100110000F0013F0010F18BFFB1A43F0010318473B
:100120003C2C00005C2C0000103A24BF78C878C139
:10013000FAD8520724BF30C830C144BF04680C60ED
:10014000704700000023002400250026103A28BF35
:1001500078C1FBD8520728BF30C148BF0B60704739
:100160001FB51FBD10B510BD03B4FFF7FBFF03BCE7
:1001700001F070FB01F018FB1146FFF7F1FF01F0F1
:1001800019FC0448002101F0BBFC01F025FC01F042
:1001900030FB00006400002080F309887047EFF313
:1001A00009807047684680F3098804480078C007D2
:1001B00014BF0220032080F3148870471C2D000810
:1001C000DFF818C0EFF305831B0618BF6047EFF395
:1001D0001483DB0708BF604700DF7047C31B0008BC
:1001E000DFF818C0EFF305831B0618BF6047EFF375
:1001F0001483DB0708BF604700DF7047A51D0008B8
:10020000EFF30980816911F8021CF1B990E80F1031
:10021000E047EFF3098C8CE80700144B93E80600E5
:1002200091420FD039B12CE9F00FC1F828C00CB4BD
:1002300000F0DFFB0CBC1A60D2F828C0BCE8F00F5D
:100240008CF309886FF0020E704710B5084A1268E7
:10025000914209D8074C54F8214090E80F10A0476C
:10026000EFF3098C8CE80F0010BD0000A400002003
:10027000641800086418000802F03CF80C4B93E87E
:100280000600914210D0EFF3098C2CE9F00FC1F871
:1002900028C00CB400F0ADFB0CBC1A60D2F828C02A
:1002A000BCE8F00F8CF309886FF0020E7047000075
:1002B000A400002002F0FEF9E0E7000001F080FC5D
:1002C00002F0F8F9DAE7000010B501F073FB00F076
:1002D00077F900F0B8F900F089F90D4801F0F8FB62
:1002E0000C49086000210C4801F0ACFB0B49086088
:1002F00000210B4801F0A6FB0A49086000F014F841
:1003000000F092FA00F0C4FA01F066FB002010BD84
:10031000B82C000800000020CC2C000808000020A9
:10032000C42C00080400002010B50021834801F00F
:10033000E7FB834908600846006810B94FF0FF30BA
:1003400010BD0020FCE710B54FF400517D4800F0CF
:1003500086FC50B14FF4C87001F020FB7AA000F089
:1003600034FA4FF47A7001F019FB4FF4804175486C
:1003700000F075FC50B14FF4C87001F00FFB74A091
:1003800000F023FA4FF47A7001F008FB082172485C
:1003900000F065FC50B14FF4C87001F0FFFA6FA097
:1003A00000F013FA4FF47A7001F0F8FA10216A485D
:1003B00000F055FC50B14FF4C87001F0EFFA69A09D
:1003C00000F003FA4FF47A7001F0E8FA4FF480611C
:1003D000664800F044FC50B14FF4C87001F0DEFAFA
:1003E00063A000F0F2F94FF47A7001F0D7FA4FF4FD
:1003F00000615E4800F033FC50B14FF4C87001F06A
:10040000CDFA5DA000F0E1F94FF47A7001F0C6FA80
:100410008021564800F023FC50B14FF4C87001F021
:10042000BDFA57A000F0D1F94FF47A7001F0B6FA96
:1004300040214E4800F013FC50B14FF4C87001F059
:10044000ADFA51A000F0C1F94FF47A7001F0A6FAAC
:100450004FF48041454800F002FC50B14FF4C870A1
:1004600001F09CFA4AA000F0B0F94FF47A7001F064
:1004700095FA4FF400413D4800F0F1FB50B14FF4C4
:10048000C87001F08BFA44A000F09FF94FF47A7025
:1004900001F084FA4FF480712F4800F0E0FB50B176
:1004A0004FF4C87001F07AFA3DA000F08EF94FF4D5
:1004B0007A7001F073FA4FF40041274800F0CFFB47
:1004C00050B14FF4C87001F069FA37A000F07DF91F
:1004D0004FF47A7001F062FA4FF40041194800F0CD
:1004E000BEFB18B14FF4967001F058FA4FF400417A
:1004F000144800F0B4FB18B101202D49086002E057
:1005000000202B4908602A48006880B1294800680B
:10051000012806D1002201212748006801F0CCFA09
:1005200005E0002201212548006801F0C5FA10BD50
:1005300003E0FFF708FF01F007FBFAE7D42C0008FF
:1005400014000020001001403A50425F420D0000AC
:100550003A50425F410D0000000801403A50425FAE
:100560004A0D00003A50425F490D0000000C014066
:100570003A50425F450D00003A50425F460D000080
:100580003A50425F430D00003A50425F440D000074
:100590003A50425F480D00003A50425F470D00005C
:1005A0003A50425F4D0D00003A50425F4E0D000040
:1005B000100000204C000020040000200800002053
:1005C00010B50121042000F073FD0121082000F086
:1005D0006FFD0121102000F06BFD0121880300F068
:1005E00067FD0121084600F063FD10BD10B54FF412
:1005F00060407F4908800420C870022088707D48D0
:1006000000F09AFA48F21810794908800420C8705E
:1006100002208870784800F08FFA4CF6C040744988
:1006200008800420C87002208870744800F084FAA2
:1006300002206F4908801020C870022088706F481F
:1006400000F07AFA10BD10B54FF4C0606849088018
:10065000012088701820C870674800F06DFA2520C6
:10066000674908700020487088700120C8700846EB
:1006700000F047F94FF4614062490860002088802B
:10068000C880088188810C2048815F4800F0B7FD50
:1006900001215D4800F03FFE012240F225515A48F9
:1006A00000F045FE59485A4908605A485A490860BE
:1006B000202101F0A4F82021544801F0A0F810BD39
:1006C00010B540F22771504800F016FF002838D0CE
:1006D0005148006851490968405C18B94F480068A2
:1006E0001F2808DB4C4800684C4A1268815C464869
:1006F00000F07EFE20E04848006848490968405CF8
:1007000068B90020454908602021434801F077F886
:10071000002240F227713C4800F009FE0CE0002066
:100720003E49086020213C4801F069F8002240F26F
:100730002771354800F0FBFD38480068401C3749F8
:10074000086040F22551304800F0D6FEA0B32E4894
:1007500000F052FEC4B20D2C0BD10D202C490968BB
:100760002F4A1268885400202E4908602C490860DE
:100770000DE03A2C0BD13A20254909680870012078
:100780002849086026480068401C2549086025481B
:10079000006801280FD12248006820280BDA3A2C83
:1007A00009D01B4800681E49096844541C48006869
:1007B000401C1B49086000BF40F22551124800F060
:1007C000C5FE10BD02460020704710B50446124811
:1007D000046005E0012240F227710B4800F0A7FDFC
:1007E0000D4800680028F5D110BD09480068704721
:1007F000180000200010014000080140000C0140DA
:100800001C000020FC000020003801400C010020EA
:10081000280000202C0100202C00002034000020A3
:10082000380000203C00002010B50021114801F0E4
:1008300067F9114908600846006810B94FF0FF30A9
:1008400010BD0020FCE70EB512E04FF0FF310B4861
:10085000006801F00FF98DE807000098102805D115
:1008600007A0FFF7B2FF00200849086001F06CF90B
:10087000EBE70000E42C0008440000200400002006
:100880003A3A50425F4C0D00000000004C0000203E
:1008900010B50021114801F033F9114908600846EC
:1008A000006810B94FF0FF3010BD0020FCE70EB516
:1008B00012E04FF0FF310B48006801F0DBF88DE8E3
:1008C00007000098102805D107A0FFF77EFF012040
:1008D0000849086001F038F9EBE70000F42C000843
:1008E00048000020080000203A3A50425F4B0D00BB
:1008F000000000004C00002031490143314A1160E2
:10090000704770B5002100230F22C47804B32D4C2A
:10091000246804F4E064C4F5E064210AC1F104032E
:10092000CA40447804FA03F1847814402143090151
:10093000254C0678A155047804F01F050124AC402D
:1009400005786D11AD0005F1E025C5F8004109E01D
:10095000047804F01F050124AC401C4D0678761184
:1009600045F8264070BD1A4A0A400243154B1B1F2A
:100970001A60704739B1134A121D12680243114BB5
:100980001B1D1A6006E00F4A121D126882430D4BB0
:100990001B1D1A607047042808D14FF0E021096937
:1009A00041F004014FF0E022116107E04FF0E02137
:1009B000096921F004014FF0E02211617047000045
:1009C0000000FA050CED00E000E400E080E100E04A
:1009D00080FFFF1F00BFFEE7012804D0022803D0DC
:1009E000032803D101E001E000E000BF00BF00BF29
:1009F000FEE7704710B501F0F5FF30B1184900EB84
:100A0000400001EB4010603810BD164810BD164A7A
:100A100010B511690346082900D3FEE7134800EB1F
:100A20000110491C1860116101F0BCFB012010BDD0
:100A300010B5044601F0D6FF002805D04FF6FF712F
:100A4000DFF82CC0206800DF10BD10B5044601F0AF
:100A5000C9FF002803D0DFF81CC0206800DF10BDEC
:100A6000700F0020F412002050000020101200200F
:100A70008D220008B521000810B50446CC488442F8
:100A800008D10121042000F02DFB0021042000F0FA
:100A900029FB46E0C748844208D10121082000F024
:100AA00021FB0021082000F01DFB3AE0C2488442EF
:100AB00008D10121102000F015FB0021102000F0CA
:100AC00011FB2EE0BD48844208D10121202000F016
:100AD00009FB0021202000F005FB22E0B8488442F9
:100AE00008D10121402000F0FDFA0021402000F053
:100AF000F9FA16E0B348844208D10121802000F0C1
:100B0000F1FA0021802000F0EDFA0AE0AE488442BC
:100B100007D10121801500F0E5FA0021A01500F0B1
:100B2000E1FA10BD10B50121084600F0DBFA002102
:100B3000012000F0D7FA10BD2DE9F0410246002552
:100B40000026002000230024002791F803C00CF0A9
:100B50000F0591F803C00CF0100CBCF1000F03D08E
:100B600091F802C04CEA050591F800C0BCF1000FF5
:100B700031D0146800202BE04FF0010C0CFA00F388
:100B8000B1F800C00CEA03069E4220D183004FF06A
:100B90000F0C0CFA03F7BC4305FA03FC4CEA0404FF
:100BA00091F803C0BCF1280F06D14FF0010C0CFAEC
:100BB00000FCC2F814C00AE091F803C0BCF1480F71
:100BC00005D14FF0010C0CFA00FCC2F810C0401C1B
:100BD0000828D1D31460B1F800C0BCF1FF0F34DD98
:100BE000546800202EE000F1080C4FF0010808FACC
:100BF0000CF3B1F800C00CEA03069E4221D1830039
:100C00004FF00F0C0CFA03F7BC4305FA03FC4CEA57
:100C1000040491F803C0BCF1280F05D100F1080CC1
:100C200008FA0CF8C2F8148091F803C0BCF1480F20
:100C300007D100F1080C4FF0010808FA0CF8C2F8CF
:100C40001080401C0828CED35460BDE8F0814FF6D8
:100C5000FF710180022181700421C170704702463A
:100C6000002093680B400BB1012000E0002070478A
:100C70000146886880B2704702460020D3680B4066
:100C80000BB1012000E0002070470146C86880B227
:100C9000704701617047416170470AB1016100E02E
:100CA00041617047C16070474FF480320A438261EE
:100CB0008161826182698269704702460020434BEC
:100CC00018684FF68073184040EA021008433F4B03
:100CD000186070473E49C8617047F0B50A46002366
:100CE00000240021002500F00046B6F1004F02D19B
:100CF000364EF16901E0354E7168C0F3034583B2A9
:100D000000F44016B6F5401F08D121F070612F4E57
:100D1000766826F070662D4F7E6012E000F4801633
:100D2000B6F5801F06D1032606FA05F4A14341F06B
:100D3000706106E0460D360103FA06F6B14341F054
:100D4000706122B1460D360103FA06F6314300F018
:100D50000046B6F1004F02D11C4EF16101E01B4E7E
:100D60007160F0BD30B500228B071C0F0F2303FA12
:100D700004F2164B08338C1053F824309343134C71
:100D800008348D1044F8253023468C1053F8243055
:100D90008C07240F00FA04F423430C4C08348D1004
:100DA00044F8253030BD0A49DC3108607047000046
:100DB00000080140000C01400010014000140140F7
:100DC00000180140001C01400020014000000140CB
:100DD00000002042DF48006840F00100DD49086063
:100DE00008464068DC490840DA494860084600681F
:100DF000DA490840D74908600846006820F4802096
:100E000008600846406820F4FE0048604FF41F0068
:100E100088607047CF49096821F48031CD4A11605C
:100E20001146096821F480211160B0F5803F03D09C
:100E3000B0F5802F0ED106E0C649096841F4803133
:100E4000C44A116007E0C349096841F4A021C14ABE
:100E5000116000E000BF00BF704710B501460022DE
:100E6000002300204A11012A02D1BA4C236806E06F
:100E7000022A02D1B74C236A01E0B64C636A01F042
:100E80001F02012494401C400CB1012000E000200E
:100E900010BD38B5002000900024002500BF31208F
:100EA000FFF7DBFF05460098401C00900098B0F566
:100EB000A06F01D0002DF2D03120FFF7CEFF08B196
:100EC000012400E00024204638BD01460020A14A4C
:100ED000106820F0F80040EAC10010607047A04997
:100EE00008607047024600209A4B586820F47C1036
:100EF00042EA01031843974B5860704798490866C7
:100F0000704701460020934A506820F003000843D0
:100F1000506070478F48406800F00C0070470146F1
:100F200000208C4A506820F0F00008435060704761
:100F300001460020874A506820F4E0600843506072
:100F4000704701460020834A506820F4605040EA10
:100F5000C1005060704729B17E4A527A02437D4BEE
:100F60005A7204E07B4A527A82437A4B5A72704733
:100F70007B49D8310860704701460020754A5068A7
:100F800020F440400843506070470021714A2032ED
:100F90001170704A82F82010012802D004280AD16A
:100FA00004E001216B4A2032117005E00521694AF5
:100FB0002032117000E000BF00BF7047694908602F
:100FC00070476449096A0143624A11627047654982
:100FD00044390860704730B5002100220024002306
:100FE0005C4D6D6805F00C0121B1042905D008297C
:100FF00023D105E05C4D056022E05B4D05601FE0FC
:10100000544D6D6805F47012524D6D6805F48034CE
:10101000022505EB92421CB9544D554305600BE087
:101020004C4D6D6805F400351DB1504D55430560BC
:1010300002E04D4D5543056002E04B4D056000BF99
:1010400000BF444D6D6805F0F0010909484D6B5C27
:101050000568DD4045603F4D6D6805F4E061090AB3
:10106000434D6B5C4568DD4085603A4D6D6805F425
:101070006051C90A3E4D6B5C4568DD40C560354D29
:101080006D6805F44041890B3A4D6B5CC568B5FB52
:10109000F3F5056130BD29B12E4A526902432D4B4B
:1010A0005A6104E02B4A526982432A4B5A617047C5
:1010B00029B1284A92690243264B9A6104E0254AE5
:1010C00092698243234B9A61704729B1214AD269C0
:1010D0000243204BDA6104E01E4AD26982431D4B71
:1010E000DA61704729B11B4AD2680243194BDA60B2
:1010F00004E0184AD2688243164BDA60704729B17F
:10110000144A12690243134B1A6104E0114A12692E
:101110008243104B1A61704712494039086070478A
:101120000F49C86470470B49C87170470948406A45
:1011300040F0807007494862704701460020054A28
:1011400092680A400AB1012000E00020704701497E
:1011500088727047001002400000FFF8FFFFF6FEA3
:10116000000042428004424200127A0000093D0021
:10117000740000208400002010B50446FB4884421F
:1011800009D101218803FFF7ADFF00214FF4804012
:10119000FFF7A8FF32E0F648844209D10121480454
:1011A000FFF7ADFF00214FF40030FFF7A8FF25E067
:1011B000F048844209D101218804FFF7A0FF0021F3
:1011C0004FF48020FFF79BFF18E0EB48844209D1E1
:1011D0000121C804FFF793FF00214FF40020FFF71F
:1011E0008EFF0BE0E548844208D101210805FFF796
:1011F00086FF00214FF48010FFF781FF10BD2DE91D
:10120000F04786B005460E460024A24600BFA14620
:101210000027B08900B100BF2F462C8A4CF6FF7022
:101220000440F08804432C82AC894EF6F31004404D
:10123000B08831890843718908430443AC81AC8A82
:101240004FF6FF400440B0890443AC8201A8FFF789
:10125000C2FEC648874202D1DDF810A001E0DDF8E9
:101260000CA0A88900F4004040B10AEBCA0000EBD2
:101270000A1031684900B0FBF1F807E00AEBCA0038
:1012800000EB0A1031688900B0FBF1F86420B8FB6C
:10129000F0F004012009642101FB1089A88900F401
:1012A000004040B1322000EBC900B0FBF1F000F08B
:1012B0000700044308E0322000EB09106421B0FB72
:1012C000F1F000F00F0004432C8106B0BDE8F08778
:1012D0004FF41651016000218180C18001810C21F1
:1012E000418100218181704710B502460020108A9B
:1012F0004FF2FF0318400B884C8823438C8823430C
:10130000CC8823431843108210BD00210180418006
:101310008180C180704721B1828942F4005282816C
:1013200004E082894DF6FF731A4082817047F0B560
:101330000346002400260025002040F66A17B94223
:1013400000D100BF1846C1F3421401F01F06012767
:1013500007FA06F5012C01D10C3004E0022C01D172
:10136000103000E014301AB107682F43076002E024
:101370000768AF430760F0BD1AB1838A0B438382CD
:1013800002E0838A8B4383827047028A4FF6F073B0
:101390001A400282028A0A430282704782894FF20F
:1013A000FF731A40828182890A438281704721B18A
:1013B000828942F00202828104E082894FF6FD7345
:1013C0001A4082817047028A4FF6DF731A40028208
:1013D000028A0A430282704721B1028A42F48042A3
:1013E000028204E0028A4BF6FF731A4002827047C1
:1013F000C1F308028280704701468888C0F3080064
:101400007047818941F0010181817047028BD2B21E
:101410000283028B42EA012202837047028B02F4AC
:101420007F420283028B0A430283704721B1828A82
:1014300042F02002828204E0828A4FF6DF731A4073
:101440008282704721B1828A42F01002828204E0D7
:10145000828A4FF6EF731A408282704721B1828AE6
:1014600042F00802828204E0828A4FF6F7731A4043
:101470008282704721B1828942F40042828103E076
:101480008289C2F30E028281704721B1828A42F4BE
:101490000062828204E0828A4FF2FF731A408282E5
:1014A0007047828A4FF6FB731A408282828A0A430F
:1014B0008282704721B1828A42F00202828204E075
:1014C000828A4FF6FD731A408282704702460020DE
:1014D000B1F5007F00D100BF13880B400BB1012094
:1014E00000E00020704701F40072B2F5007F00D1E7
:1014F00000BFCA430280704770B502460024002333
:101500000025002040F66A16B14200D100BFC1F3A9
:10151000421501F01F03012606FA03F3012D02D143
:101520009689334006E0022D02D1168A334001E04D
:10153000968A33400C12012606FA04F416883440C9
:1015400013B10CB1012000E0002070BD10B50022E5
:10155000002340F66A14A14200D100BF0A12012400
:101560009440A3B2DC43048010BD00000038014069
:101570000044004000480040004C00400050004043
:101580000948804709480047FEE7FEE7FEE7FEE717
:10159000FEE7FEE7FEE7FEE7FEE7FEE70448054953
:1015A000054A064B704700009F160008ED00000832
:1015B00058130020581900205815002058150020F5
:1015C0000CB50020019000906C48006840F4803019
:1015D0006A49086000BF6948006800F40030009064
:1015E0000198401C0190009818B90198B0F5A06FBF
:1015F000F1D16248006800F4003010B10120009081
:1016000001E0002000900098012843D15C48006868
:1016100040F010005A4908600846006820F00300B6
:1016200008600846006840F00200086053484068BF
:10163000524948600846406848600846406840F49F
:10164000806048600846406820F47C104860084686
:10165000406840F4E81048600846006840F0807038
:10166000086000BF4548006800F000700028F9D00D
:101670004248406820F003004049486008464068FE
:1016800040F00200486000BF3C48406800F00C0099
:101690000828F9D10CBD10B5FFF792FF10BD10B5A9
:1016A0003648006840F00100344908600846406848
:1016B00034490840314948600846006832490840CA
:1016C0002E4908600846006820F48020086008461B
:1016D000406820F4FE0048604FF41F008860FFF768
:1016E000DAFF4FF000602949086010BD10B50021F5
:1016F00000200022214B5B6803F00C0121B104297A
:1017000006D0082928D107E0214B224C236027E08E
:101710001F4B204C236023E0184B5B6803F47010D0
:10172000164B5B6803F48032022303EB904022B92E
:10173000194B4343174C23600DE0104B5B6803F4D7
:10174000003323B1144B4343124C236003E0104B8E
:101750004343104C236003E00D4B0E4C236000BF4D
:1017600000BF064B5B68C3F303130C4CE15C094BF1
:101770001B68CB40074C236010BD000000100240E6
:10178000002002400000FFF8FFFFF6FE08ED00E039
:1017900000127A008800002000093D008C00002023
:1017A00000487047F41200207546FFF7F9FFAE4677
:1017B00005006946534620F00700854618B020B55D
:1017C000FFF7ECFEBDE820404FF000064FF00007A9
:1017D0004FF000084FF0000B21F00701AC46ACE8D9
:1017E000C009ACE8C009ACE8C009ACE8C0098D4646
:1017F00070470446AFF300802046FEF7B5FC4FF07B
:10180000000200B5134694469646203922BFA0E850
:101810000C50A0E80C50B1F12001BFF4F7AF09075C
:1018200028BFA0E80C5048BF0CC05DF804EB89004D
:1018300028BF40F8042B08BF704748BF20F8022B90
:1018400011F0804F18BF00F8012B704770477047A8
:101850007047000001491820ABBEFEE726000200D9
:10186000704700000000000010B5002A06DA22F0E0
:101870000042D21D22F00703102203E0D21C22F006
:1018800003030C2213B19C188C4201D9012010BD16
:10189000024401448360C0E90021C91AD01888427B
:1018A00002D810600246F9E70020106010BD000069
:1018B00008480068C0010BD507480068C00707D07A
:1018C000054880380068002802DA044901200870C1
:1018D00070470000FCED00E0800E00E0C00000203A
:1018E0004FF06042D36F002BFCD0036BD367D36FF4
:1018F000002BFCD0C07840EA0120A2F87C007047A1
:101900004FF06041CA6F002AFCD081F87C0070471C
:1019100070B50D46040003D012B92078012801D01B
:10192000802070BD204600F0F1FA28B129462046FB
:1019300000F02CF8002070BD812070BD10B5044669
:101940008089002821D0608904EB8000006908604C
:101950006078022805D10021204600F019FD00F032
:1019600007FD04F10C0000BFD0E85F1F491EC0E86E
:10197000521F002AF8D16089401C80B26081E18941
:10198000884201D100206081042010BD10B500F014
:10199000FFFCBDE8104000F0EBBC0000EFF3058158
:1019A00009B182207047DFF808C000DF70470000EF
:1019B000F5290008EFF3058008B182207047EFF3A6
:1019C0001480C00703D0DFF80CC000DF704701F0BF
:1019D0001BB80000092A000888B0EFF3058010B199
:1019E000822008B07047EFF3148010F00301134811
:1019F00006D001291BD0022911D0032919D113E0E7
:101A000008A981F309880078C0070BD05FF00200B5
:101A100080F31488BFF34F8FBFF36F8F09E0007816
:101A2000C00706D10320F3E70078C00701D0FF20EC
:101A3000D7E7DFF80CC000DFD3E700001C2D00085B
:101A4000792A0008EFF305820AB100207047EFF30E
:101A50001482064B02F001025B781A4303D0DFF8D0
:101A600010C000DF704701F02BB800009C00002080
:101A7000C12A00080EB50246EFF30580A0B1802010
:101A800002B121B10090DDE9011203B000BD11786F
:101A90000129F7D101A91046FFF750FF042801D012
:101AA0000020EFE71020EDE71046DFF808C000DF68
:101AB000EBE70000E52A0008EFF305830BB1FFF721
:101AC00027BFDFF808C000DF704700001F2B0008A9
:101AD000EFF3058109B100207047EFF31481064A46
:101AE00001F001015278114303D0DFF810C000DF8C
:101AF000704701F02FB800009C000020552B000813
:101B0000EFF305820AB100207047EFF31482064B11
:101B100002F001025B781A4303D0DFF810C000DF47
:101B2000704701F02BB800009C0000207D2B0008BE
:101B3000DFF80CC000DFDFF80CC000DFFEE70000BC
:101B4000ED2B0008092C0008EFF3058008B1822076
:101B50007047DFF808C000DF70470000412C000824
:101B6000DFF804C000DF70474B2C0008094C4FF031
:101B7000FF3529462068FFF77DFF02460846102AF8
:101B8000F7D1FFF7EDFF0028F3D002460846904753
:101B9000EFE7000054000020074801684FF0E02004
:101BA000416100218161072101610448016841F020
:101BB0007F41016040177047182D000820ED00E0BC
:101BC000704750E8001F31B10B6840E80032002A2E
:101BD000F7D108467047BFF32F8FFAE710B568B109
:101BE00061B10B3121F00302016844680B1A1B1B21
:101BF000934205D2084609680029F5D1002010BD9E
:101C00003CB121180368C1E90032016001F108000C
:101C100010BD4260083010BD70B50D46002812D0CE
:101C20004FF6FF71084C884204D2226801461046E4
:101C300000F0DAFB20684570044800F0D7F8BDE8F2
:101C4000704000F083BC70BDA4000020C4120020CE
:101C50000F4810B50D4942680E480B680068934262
:101C600004D00A60CB88421E1A448A808A8880B2D7
:101C700082420AD100200860054800F0B7F801460A
:101C8000BDE81040024800F0D3BB10BDB8000020F2
:101C9000C4120020B400002070B5194DE868002877
:101CA0002CD0A88A401EA882002621E0A06838B166
:101CB00061684160606810B1A16881606660A6607B
:101CC0000F482146183800F0B3FBA08AA88260783C
:101CD000042804D10B49E08A09880844A082012025
:101CE0006070E068E860E06808B10561E660266160
:101CF000A88A002802D1EC68002CD7D170BD000062
:101D0000DC120020B400002070B504000FD00D4D8F
:101D1000A17801262868827891420CD900F0A4FBB2
:101D2000286846702046BDE8704000F00FBC0648A9
:101D300000F05CF8F7E766702146BDE870400248A5
:101D400000F076BBA4000020C41200200321FFF79E
:101D500063BF000010B50446008B084320836278FF
:101D6000618B062A18D0052A19D1084217D001EA3A
:101D70000002628388432083204600F0A0FB0120FC
:101D80006070628B0821204600F095FB2146BDE87B
:101D90001040034800F04CBB31EA0002EAD010BD0D
:101DA000C4120020814202D342688A4201D8012035
:101DB000704750E8002F0A6040E80012002AF8D16E
:101DC0000020704768B161B10839002202E0024684
:101DD000006830B18842FAD12AB100681060002052
:101DE00070470120704700214160F8E701464068D4
:101DF00042684A600B780022022B05D0012B03D0E9
:101E0000032B01D04260704743680BB19960426078
:101E1000826070470649074B48681B6882789B7848
:101E20009A4202D142684A60704700207047000021
:101E3000C4120020A4000020810700D000207047B9
:101E400070B5044600201546207001226270A17012
:101E500084F824106060A060E06020612062A082AD
:101E6000E0822083608384F82500E08C18B905485F
:101E7000FFF7A7FEE06229462046BDE8704000F06B
:101E80001DB80000C802002008B1082901D20120B5
:101E900070470144091F002201600A604260104639
:101EA0007047000003480021016003490988C18090
:101EB00070470000B80000200C2D000810B5C28C3F
:101EC000920803D10F4A1288C2F38D02C36A03EB52
:101ED0008202530700D5121F403A4FF08073C2E9C7
:101EE0000E1300234FEA030442F823405B1C0E2B21
:101EF000FAD3C369136282620163C06A0249016056
:101F000010BD0000082D0008A52E5AE2C189808965
:101F1000081A7047012202700022427082704260EB
:101F20000281428110398281C1F38F01C1817047E2
:101F30002DE9F041044640680E464FF0000804F1D8
:101F40000C05E0B36078012701283DD0022813D0AA
:101F500003285BD10846FFF734FE050056D0204623
:101F6000FFF744FF0446294600F0A2FA67702046B6
:101F700000F0A5FA214620E02046FFF737FF06468D
:101F8000002100F095FA2189F06904EB81010861D4
:101F9000D5E85F0F401CC5E8510F0029F8D1208912
:101FA000401C80B22081E189884201D1A4F80880D8
:101FB0007770304600F083FA3146184800E00CE0B4
:101FC000BDE8F04100F034BA2046FFF70FFF0446A9
:101FD0003246102100F06FFAC8E7A089E1898842F3
:101FE00016D2208904EB8000C0F81060D5E85F0F9E
:101FF000401CC5E8510F0029F8D12089401C80B24F
:102000002081E189884201D1A4F80880BDE8F081EF
:10201000BDE8F0410320FEF7DFBC0000C412002041
:1020200070B5164642680D4612B1417801290BD0B1
:102030008189C4890023A14224D19EB11D4C21680D
:1020400092B100F0F5F916E0FFF7D0FE04462A46FB
:10205000102100F030FA204600F031FA2046FFF758
:1020600053FE24E0012070BD416021684B6021686F
:1020700088600221417020680821C5613046FFF761
:10208000CBFDEFE7018900EB81010D6100F10C014F
:10209000D1E85F2F521CC1E8542F002CF8D10189E0
:1020A000491C89B20181C289914200D1038100207B
:1020B00070BD0000A400002070B50446808915465C
:1020C0000026B8B3608904EB80000069086060896D
:1020D000401C80B26081E189884200D166816068DD
:1020E00010B1607802280AD014F10C04D4E85F0F14
:1020F000401EC4E8510F0029F8D1002070BD2046D1
:10210000FFF774FE0546002100F0D2F92189E86945
:1021100004EB810108612089401C80B22081E189A3
:10212000884200D12681284600F0C9F92846FFF7E9
:10213000EBFDE2E7FFE73DB10A48626801682AB1BA
:10214000204600F075F908E0012070BD616001686B
:102150004E60006884600120607008212846FFF707
:102160005BFDF1E7A4000020411C13D00B4A4FF6A1
:10217000FE7190420CD800EB4002C2EBC01208483E
:10218000036803EBC202521EB2FBF3F0884200D98F
:10219000084670474FF6FF707047000000093D0089
:1021A000282D0008032101700021418041608160D9
:1021B000C16070472DE9F0410446408820B1314D9F
:1021C000A1682A68914202D0FF20BDE8F081401E3C
:1021D0000004000C608053D12968086AA04209D12C
:1021E000E068086208E0C268A24202D1E268C26008
:1021F00002E010460028F6D191F824000A6A06E0B1
:1022000053681BB19B78834200D91846D268002AD4
:10221000F6D18870DFF870806168012611B320461E
:10222000FFF7E4FD0746002100F042F9384600F0D0
:1022300046F96680A760386AE0603C622968D8F891
:1022400004008A788078824201D3384616E00E482E
:1022500000F0EEF839460C4800F0EAF828684670BD
:102260007E700AE0D8F804108A782968824207D97B
:10227000054800F0DDF8286846700020FFF744FDAF
:102280000020A2E7A4000020C412002070B5184D61
:102290000E4604464188286839B1A168814209D1B7
:1022A0006088401C6080002070BDA060016AE16011
:1022B0000462F5E776B18A788078824203D288702A
:1022C000A06800F0DBF8606830B12046296800F0B3
:1022D000AFF808E0012070BD286860602968002020
:1022E00048602868846009213046FFF795FCF1E7D3
:1022F000A400002070B51B480121026851700068DD
:1023000000F0B2F8184D6C7817E000BF05EBC4017F
:1023100048680278E2B1012A1FD000F0FDF8E878A1
:10232000641C844200D100240F48801CD0E84F1F59
:10233000491EC0E8421F002AF8D1A8780028E5D13C
:102340006C700A48FFF752FDBDE8704000F0FEB81F
:10235000098989B2FFF7FEFCE1E78968FFF7E8FD2C
:10236000DDE70000A4000020B00E0020C412002011
:102370000548017811B101214170704703494FF0C0
:102380008050086070470000AC00002004ED00E0C1
:10239000F0B4144A941CD5784FEA0206D4E84F3FB3
:1023A000AB4202D1BFF32F8F0EE05B1CC4E8473F66
:1023B000002FF3D1D6E84F3F5C1CAC4200D1002483
:1023C000C6E8474F002FF5D1D4789C4205D902EBDF
:1023D000C302C2E90101F0BC7047F0BC0220FEF765
:1023E000FBBA0000B00E0020104A10B5D368ABB1A4
:1023F00013469B8A03E08CB12246A48A2344D46806
:102400008B42F8D3C460D0600261C46804B120611B
:10241000591A8182908A401A908210BD0024C460AB
:10242000D060C91A02619182848210BDDC12002042
:1024300030B502780023022A03D0012A01D0032AF2
:1024400000D101238C7800E01046426812B19578E3
:10245000A542F9D24A6041601BB102B19160886027
:1024600030BD0020FBE7000003494A6842600022BB
:102470008260486070470000C412002010B5836875
:1024800004462BB9607801280ED1084B03E09B6805
:1024900018780028FBD0204600F026F82146BDE839
:1024A00010401846FFF7C4BF10BD0000C412002042
:1024B000806A01627047806AC0E90812704710B5EF
:1024C000016900290ED0C268CA60C36800223BB10E
:1024D0008B8A848A23448B82C3681961C26000E0BE
:1024E0008A82026110BD0000816839B142684A6089
:1024F0004168002901D0806888607047054906E07E
:102500004A68824202D140684860704711460029FB
:10251000F6D17047C412002010B5416881B1FFF7B1
:1025200065FC0446FFF7CBFF0120607001462046A2
:10253000FFF7BEFF2146BDE810400348FFF778BF14
:102540004188491C418010BDC41200200749022265
:1025500048604270064A1278002A05D006C98A42AD
:1025600002D0C078FFF7CCB970470000A40000206B
:10257000C000002070B5FFF79BF9002004462F4AE9
:102580002F4902E042F82040401C0B889842F9D3C2
:102590002C48342201882C48FFF766F92B48008824
:1025A00080B240F000422A4801682A48FFF75CF9EF
:1025B00029480822018829480068FFF755F9284D65
:1025C000FF20284AE870EC8400212846FFF738FCF9
:1025D000254804210170446024480170C4600461EE
:1025E00084822348244905600220687021480470D1
:1025F00044700978C170FFF755FC2048016841F428
:102600007F01016000684FF07F4101EA00201B4913
:10261000C0431439B0FA80F00968C0F10800C1F372
:102620000221814200DB481C1449091F0B686FF02E
:102630008072824063F317020A6070BD340F00207D
:10264000042D0008302D000850010020082D00083E
:10265000342D0008C8020020582D00085C0000201E
:1026600090120020D5090008C4120020DC120020BE
:10267000A4000020B00E00203C2D000820ED00E05A
:1026800010B5FFF789FA0949002808600DDB084AF0
:10269000FF21815400F01F020121914040114FF0B1
:1026A000E02202EB8000C0F8001110BDB000002055
:1026B00000E400E00C4810B5026801215170006888
:1026C000FFF7D2FEFFF7C4FA08480168491C016011
:1026D000FFF7E2FA00F0C6FA0548FFF787FBBDE80E
:1026E0001040FFF733BF0000A4000020B40000201A
:1026F000C4120020002805D0810702D101780029EA
:1027000000D000207047000030B50C4C00236268F8
:1027100005E015898D4204D813461268491B002A2A
:10272000F7D189B20260018112B11589691A11814C
:102730000BB1186030BD606030BD00009C0000200F
:102740002DE9F0411E46174680460C4611F0FF0F5A
:1027500000D14C1C1748FFF734FA050028D0C4F309
:102760000F20EF62E884E1B242462846EE61FFF7AF
:1027700067FB01241048114906E000BF00EB84020A
:1027800052F8042C22B1641C0A889442F6D9002421
:1027900000EB840040F8045C0948EC70007818B144
:1027A00001212846FFF79CF82846FFF7ADFA20469E
:1027B000BDE8F08150010020340F0020042D0008F6
:1027C000C00000202DE9F05F564DDFF850A1DFF882
:1027D000509129684FF00008012618B1CA78AB461D
:1027E000824241D1474681F80180FDF7D8FC296833
:1027F0008862FEF7FEF82868B046046A1AE060684E
:10280000B8B12046FFF7F2FA06460021FFF750FE66
:102810003046FFF754FE86F8018031464248FFF704
:1028200007FEA4F80280A660316AE1603462E468C1
:1028300000E0E468002CE2D12868C27809EB82014C
:1028400041F8047CC16A3948FFF7ACFA2868C762CE
:102850009AF8001011B10021FFF742F834482968B6
:10286000FFF7A0FA2F6053E03249098888420DD85B
:1028700009EB800757F8045C45B12846FFF734FEA2
:102880002846FFF71CFEB1462C6A1DE0FF20BDE87C
:10289000F09F6068B8B12046FFF7A8FA064600210D
:1028A000FFF706FE3046FFF70AFE86F80190314634
:1028B0001D48FFF7BDFDA4F80290A660316AE160F3
:1028C0003462E46800E0E468002CE2D147F8048C4C
:1028D00044461648E96AFFF765FAEC629AF8000088
:1028E00018B100212846FEF7FBFF29461048FFF7E4
:1028F00059FA0D48DBF8001040688B7882789A42CC
:1029000009D981F801900848DBF80010FFF790FD25
:102910000020FFF7F9F90020B9E70000C00000200F
:10292000340F0020A4000020C4120020C8020020A0
:1029300050010020042D000870B5FFF76BFA040069
:102940000CD0074D07482968FFF772FD2968012060
:1029500048702046BDE87040FFF7F8BD70BD00002C
:10296000A4000020C412002070B51A4D80B11A4A8C
:10297000128890421FD8194A02EB800050F8044C8C
:10298000CCB1A17084F824102868A04205D014E0CE
:1029900028688170286880F8241011484068807881
:1029A000884215D90E482968FFF742FD29680120A1
:1029B000487000200AE0FF2070BD2046FFF75EFD52
:1029C0006078012804D10648FFF710FAFFF79CF958
:1029D000002070BDA4000020042D0008340F00204A
:1029E000C412002002480068002800D0C078704758
:1029F000A400002010B5002805D0FFF7B5FB80B279
:102A0000FFF7A4F9402010BD10B5134C207860B931
:102A10001248400705D1124801681048FFF734FA00
:102A200008B1852010BDFFF7A5FD0E49FF200968FC
:102A30008870207858B900210B4800F041F80B4904
:102A4000086000210A4800F099F80A49086001204E
:102A500020700020607010BD9C000020380C002009
:102A6000382D0008A4000020502D0008540000203C
:102A7000402D00085000002070B50F4D687808B157
:102A8000002070BD0D4C206890F824100020FFF746
:102A90006BFF2068C178FF2903D1816A203181F35F
:102AA0000988616811B9606000202060FFF7E8FDC7
:102AB00001206870E4E700009C000020A4000020D2
:102AC00010B5040005D0216819B1606808B102781A
:102AD0000AB1002010BD8900103189B2FFF71AFA3F
:102AE000606810BD3EB504000D464FF0800012D066
:102AF000217801290FD12846FFF736FB82B201A9C0
:102B00002046FFF7D9FA012801D0102003E00DB1CB
:102B1000402000E00020DDE9011203B030BD70B5B7
:102B20000E460500144602D02878012801D08020E6
:102B300070BD1046FFF718FB82B231462846FFF7FA
:102B40006FFA012801D0002070BD0CB1C12070BD0A
:102B5000812070BD10B504000ED0216861B162689B
:102B600052B1A06840B1D21C22F0030251430C3193
:102B7000FEF77AFEA06810BD002010BD70B50E46AD
:102B800004002BD0206848B3B4F9040010F1030FFF
:102B900024DB032822DCE16829B11148FFF71EF885
:102BA00005001BD000E00025B4F90400E168001D19
:102BB00040EA012133462A462068FFF7C1FD40B1B3
:102BC000084901EB8000084950F8040C826A5163FF
:102BD00070BD1DB129460248FFF7F4F8002070BD12
:102BE000380C0020340F0020311B000810B5FFF70F
:102BF000F9FE002804D0034901EB800050F8040CD2
:102C000010BD0000340F002010B5FFF773FD18B1A0
:102C1000C18C19B1C46A02E0802010BD0024C078C4
:102C2000FFF7D0FDFF2806D01CB121460348FFF76F
:102C3000C9F8002010BD812010BD0000380C002014
:102C400010B5FFF779FE002010BD10B5FFF7F4F8BE
:102C500020B101690A68C168104610BD0020014614
:102C600010BD00002DE9F041114E7468002C18D001
:102C70002089104F401E20814FF001080EE02546AC
:102C800024687460002229463868FEF741FE68799E
:102C9000012808D085F80480002C02D02089002863
:102CA000EDD0BDE8F08169892846FFF72DFDF3E7F7
:102CB0009C000020540000200100000004000000DF
:102CC000C400002001000000D4000020010000002A
:102CD000E8000020310500080000000001000000AD
:102CE000000000004708000800000000010000008C
:102CF00000000000AF080008000000000100000014
:102D00000000000007000000900102000500010023
:102D1000001BB7000C000000DF2E000001000000C7
:102D2000020001004A000400E80300000000000067
:102D30007801000070090000780200001000000017
:102D40006D1B00080200000001000000C800000028
:102D500004000000500F0020000000007C2D00083F
:102D600000000020C400000028010008402E0008D8
:102D7000C400002094180000440100080000000076
:102D80000000000000000000000000000000000043
:102D90000000000000000000000000000000000033
:102DA0000000000000000000000000000000000023
:102DB0000000000000000000000000000000000013
:102DC0000000000000000000000000000000000003
:102DD00000000000000000000000000000000000F3
:102DE000C90200080000000001000000900100007E
:102DF00000000000010203040102030406070809A1
:102E00000204060800A24A040000000000000000BE
:102E1000010203040607080900000000000000008A
:102E200000000000000000000000000000000000A2
:102E30000000000000000000000000000000000092
:04000005080000ED02
:00000001FF
